:020000040000FA
:100000000008002045010000C7010000810F00002A
:100010008B0F0000950F0000A90F00009F0F00003C
:10002000000000000000000000000000511F000060
:10003000E301000000000000191F0000EB010000B8
:100040000000000000000000000000007529000012
:1000500000000000F30100000000000000000000AC
:10006000F7010000FB010000FF0100000302000097
:1000700000000000070200000B0200000F02000059
:100080001302000017020000000000000000000042
:100090001B0200001F020000000000000000000022
:1000A0002302000000000000000000002702000002
:1000B0002B0200002F020000330200003702000074
:1000C0003B0200003F020000430200004702000024
:1000D0004B020000000000004F0200000000000082
:1000E0005302000000000000570200000000000062
:1000F0005B020000000000000000000000000000A3
:10010000000000005F02000000000000000000008E
:1001100000000000000000000000000000000000DF
:10012000000000006302000000000000000000006A
:1001300000000000000000000000000000000000BF
:1001400067020000002080F31488BFF36F8F80F3F4
:100150000A8880F30B8814490860BFF34F8F00F0C2
:1001600027FF124C124DAC4209DA21686268A3687D
:10017000043BA2BFC858D050FAE70C34F3E70D4B4C
:100180000D4CA34208DA19685A680020043AA4BF4B
:100190008850FBE70833F4E772B60848084908605E
:1001A00000F04AFF00F0B0FE94ED00E06C020000A9
:1001B0009002000090020000A80200000000000071
:1001C00008ED00E0FEE7FFF7FEBF00F0D9BE00F04B
:1001D000DCBE00F0DFBE00F0E7BE00F0E0BE01F0E4
:1001E000B7BEFFF7FEBF01F097BEFFF7FEBF02F0FC
:1001F000C1BBFFF7FEBFFFF7FEBFFFF7FEBFFFF774
:10020000FEBFFFF7FEBFFFF7FEBFFFF7FEBFFFF722
:10021000FEBFFFF7FEBFFFF7FEBFFFF7FEBFFFF712
:10022000FEBFFFF7FEBFFFF7FEBFFFF7FEBFFFF702
:10023000FEBFFFF7FEBFFFF7FEBFFFF7FEBFFFF7F2
:10024000FEBFFFF7FEBFFFF7FEBFFFF7FEBFFFF7E2
:10025000FEBFFFF7FEBFFFF7FEBFFFF7FEBFFFF7D2
:10026000FEBFFFF7FEBFFFF7FEBF00BFAC560000AA
:1002700040670020F4000000C0560000202000204D
:1002800000000000C0560000002000200000000018
:10029000406800204C200000202000202047000063
:0802A0000020002020000000F6
:1002C000024B0A460146186800F05CB8C867002077
:1002D00008B5074B044613B1002100E000BF054BF1
:1002E0001868836A03B19847204605F04FF800BFAD
:1002F000000000002405000070B50D4D00260D4CD7
:10030000641BA410A64209D10B4D00260B4C05F02E
:100310003FF8641BA410A64205D170BD55F8043BFC
:1003200001369847EEE755F8043B01369847F2E767
:100330002C6800202C6800202C68002030680020E9
:10034000024B0146186800F02BB800BFC8670020B8
:10035000884210B501EB020402D98442234607D833
:10036000431EA14208D011F8012B03F8012FF8E732
:10037000024401468A4200D110BD13F8014D02F833
:10038000014DF7E738B502FB01F5294600F052F8B8
:10039000044618B12A46002100F088F9204638BDED
:1003A00038B50546002941D051F8043C0C1F002BFC
:1003B000B8BFE41800F0A8F81D4A136833B96360A9
:1003C00014602846BDE8384000F0A4B8A34208D91C
:1003D000206821188B4201BF19685B6809182160E9
:1003E000EDE71A465B680BB1A342FAD911685018C1
:1003F000A0420BD120680144501811608342E0D123
:1004000018685B68014453601160DAE702D90C2375
:100410002B60D6E7206821188B4202BF19685B6801
:100420000918636008BF21605460CAE738BD00BF87
:1004300078880020F8B5CD1C064625F00305083560
:100440000C2D38BF0C25002D01DBA94203D90C234C
:1004500033600020F8BD00F057F821490A681446BF
:100460009CB9204F3B6823B92146304600F03CF848
:1004700038602946304600F037F8431C23D10C235E
:100480003046336000F046F8E3E723685B1B17D47F
:100490000B2B03D923601C44256004E06368A2424F
:1004A0000CBF0B605360304600F034F804F10B00D1
:1004B000231D20F00700C21ACCD01B1AA350C9E795
:1004C00022466468CCE7C41C24F00304A042E3D0B5
:1004D000211A304600F008F80130DDD1CFE700BF27
:1004E000788800207C88002038B50023054D04461C
:1004F00008462B6004F03AFF431C02D12B6803B17D
:10050000236038BD80880020014800F009B800BF92
:1005100084880020014800F004B800BF84880020CF
:1005200070477047CC670020009A284B9A4209D147
:100530001FB527486946002200F080FE0FBC0CBCA6
:100540009E4674470FDFFEE7009A204B9A4209D17E
:100550001FB520486946002200F070FE0FBC0CBC9D
:100560009E4674470FDFFEE7009A184B9A4209D166
:100570001FB519486946002200F060FE0FBC0CBC94
:100580009E4674470FDFFEE70CB4029A0F4B9A4267
:100590000AD10CBC1FB511486946002200F04EFE7E
:1005A0000FBC0CBC9E4674470FDFFEE7009A074B5A
:1005B0009A4209D11FB50A486946002200F03EFE62
:1005C0000FBC0CBC9E4674470FDFFEE7A5EDF5FEA1
:1005D000751200007B120000A912000071130000C8
:1005E000F9150000C3438B4210B50ED332F01F0340
:1005F0000BD1013902F014030144102B81EA0004ED
:100600003DD004DC63B1042B32D0002041E0142B38
:10061000FBD11F2C40E8C0F30CD941E8C0F105E044
:100620001F2C40E800F305D941E800F11C460B46B9
:100630008C42EAD122F01402013A0A2AE5D801A13B
:1006400051F822F0A10600009B0600008D06000074
:100650000B0600000B0600000B0600000B06000056
:10066000A7060000A1060000950600008D06000008
:100670001F2C40E840F3DDD941E840F1D6E71F2CBC
:1006800040E880F3D6D941E880F1CFE713F4001FAA
:10069000BBD010BD13F4801FFAE75B02F9D5B4E7B5
:1006A00013F4002FF4E713F4802FF1E70346F0B5BD
:1006B000C9B29AB19C0715D115460C0444EA0164ED
:1006C0000C4344EA0124D618032D0FD822F0030569
:1006D0002B446FF00305940805FB04221A4493424F
:1006E00008D1F0BD03F8011B013AE2E7771B3C603B
:1006F000043DE9E703F8011BF1E7F0B504468AB3CE
:1007000041EA040515F0010513D1012A23D941EA74
:10071000040313F0020312D1D618032E15D86FF07C
:100720000306930806FB032204EB830401EB830119
:1007300016E011F8013B013A04F8013BDFE731F81C
:10074000023B023A24F8023BDFE7CE1A3768E61A8A
:100750003760043BE0E70023DEE76B5C2B55013597
:10076000AA42FAD1F0BD42DF0047000000000000BD
:100770000000000000000000000000000000000079
:1007800001015F5F030100001F030000C5080000B6
:100790000020000000000000010000000100000037
:1007A00000000000000000003042002000000000B7
:1007B00070000000A0540000100000008000000045
:1007C000000700000100000000015F5F040100005D
:1007D0001F030000750D0000000500000000000070
:1007E0000000000003000000000000000000000006
:1007F0003062002000000000AB5400001000000038
:10080000400000000005000001000000C854000086
:100810002000000041000000000500000100000071
:10082000DE54000040000000420000000004000010
:100830000100000000015F5F00000000FE030000F7
:10084000D91F0000000400000000000000000000AC
:10085000000000000000000000000000E06900202F
:100860000000000001015F5F01000000FF030000C5
:10087000F91F00000001000000000000000000005F
:10088000000000000000000000000000E06D0020FB
:040890000000000064
:1008A00038B500250648294600F58054D4F80024C0
:1008B000C4F80454FFF7FAFEC4F8005438BD00BF72
:1008C000242000202DE9F04FADB000F0E9F8002819
:1008D00040F0DB8001216E4802F008FE02F088FE45
:1008E000002840F0D2801FAD014634222846FFF791
:1008F000DDFE4FF0FF34674F4FF000414FF0FF3007
:1009000004F06AFDC20640F1BF80102013A904F074
:1009100067FD00B1FEE71399002940F0B48034234D
:100920002A46149804F064FD342805D11F9C402CFD
:1009300004D94FF0FF341EE0631C1CD0202200219C
:1009400003A8FFF7B3FE202200210BA8FFF7AEFE9D
:1009500004231AAA52F804191E46013B49B1342354
:100960004FF0010B039504930DF10C090DF1600894
:1009700028E0002BEED16FF0830676E0DFF818C197
:10098000D8F80030DCF80004D91C21F00301C0F5D0
:10099000A0529142C24664D80144C219CCF8001456
:1009A00014985946019204F023FD019ADAF80030B8
:1009B000C9F80820C9F80C3008F104080BF1010B44
:1009C00009F10809B345D9D34FF004091EAB53F818
:1009D0000429C84609F1FF391AB34FF0000E7346D7
:1009E000DFF8B4C00BA9DCF800240DF16C0A5AF84A
:1009F000049BC2F5A05B09F1030020F003005845F9
:100A000001F1080128D8013302EB070E434541E903
:100A100002E902444FF0010EE9D19946CCF80024D6
:100A200002E0B9F1000FD2D1159A1B4B3146C3F841
:100A300004241A4B0BAA53F8248003A84B46C04742
:100A40004FF0000806460DF12C0AC8450AF1080AC5
:100A500010D1FFF725FF08E0BEF1000F01D0CCF860
:100A60000024FFF71DFF6FF08C063146149804F048
:100A7000CBFC41E741465AE90223149804F0C0FC3C
:100A800008F10108E1E7FEE7FEE72DB0BDE8F08FD1
:100A9000202000202420002024300020BC0D000055
:100AA00008B54FF4606200210248FFF7FFFD002007
:100AB00008BD00BF303400206FF0850070476FF034
:100AC000850070476FF0850070476FF085007047B4
:100AD0006FF0850070476FF0850070476FF08500FC
:100AE00070476FF0850070476FF0850070476FF0BA
:100AF000850070476FF0850070476FF08500704784
:100B00006FF0850070476FF0850070476FF08500CB
:100B100070476FF0850070476FF0850070476FF089
:100B2000850070476FF0850070476FF08500704753
:100B30006FF0850070476FF0850070476FF085009B
:100B400070476FF0850070476FF0850070476FF059
:100B5000850070476FF0850070476FF08500704723
:100B60006FF0850070476FF0850070476FF085006B
:100B700070476FF0850070476FF0850070476FF029
:100B8000850070476FF0850070476FF085007047F3
:100B90006FF0850070476FF0850070476FF085003B
:100BA00070476FF0850070476FF0850070476FF0F9
:100BB000850070476FF0850070476FF085007047C3
:100BC0006FF0850070476FF0850070476FF085000B
:100BD00070476FF0850070476FF0850070476FF0C9
:100BE000850070476FF0850070476FF08500704793
:100BF0006FF0850070476FF0850070476FF08500DB
:100C000070476FF0850070476FF0850070476FF098
:100C1000850070476FF0850070476FF08500704762
:100C20006FF0850070476FF0850070476FF08500AA
:100C300070476FF085007047012908D1012B06D855
:100C40004368342B03D1D2E9000102F0A1BC6FF05C
:100C5000800070476FF08500704708B502F096F984
:100C6000002008BD70B5002405460426A6B03C222D
:100C7000214607A8CDE90244CDE904440694FFF7D4
:100C800015FD3C22214617A81694FFF70FFD01948D
:100C900005F11C0353F804193246013E09B116460A
:100CA00001E0002EF6D1042405F12C0353F80419B9
:100CB0002246013C09B1144601E0002CF6D1731E16
:100CC000012B38D8012C36D80423002168680DEB9D
:100CD000030204F08DFB042804D06FF08006304638
:100CE00026B070BD022E24D16B69402BF5D806AE1C
:100CF00032460121686804F07BFB6B699842ECD1B5
:100D0000CDE9026002A934B12B6A402BE5D816AABE
:100D1000CDE9042304AC2246019802F049F90646C5
:100D2000002CDCD0DDE904230021686804F068FBB6
:100D3000D5E70021E7E70126D1E710B58CB00C46D6
:100D4000694604F04DFB009B002B04DA02330BDAFA
:100D500004F06AFB0CE003D0A3F2F233012BF7D8C6
:100D60006846A047014600E00021019804F04CFBD2
:100D70000CB010BD70B50E4C0E4D0F4E4FF0004133
:100D80004FF0FF3004F028FBC10604D53146102097
:100D9000FFF7D3FFF2E7820602D529462020F7E7C6
:100DA000430602D521464020F2E704F03DFBE5E78B
:100DB000550C0000650C00005B0C00000F0C0000DF
:100DC000150C0000FD0B0000030C0000F70B0000E9
:100DD000090C00001B0C0000210C0000270C000077
:100DE0002D0C0000130B0000190B0000EF0A00008F
:100DF000F50A0000FB0A0000010B0000070B0000D1
:100E00000D0B0000430B0000490B00001F0B0000FE
:100E1000250B00002B0B0000310B0000370B0000EE
:100E20003D0B0000E30A0000E90A0000C50A0000CB
:100E3000CB0A0000B90A0000BF0A0000D10A000076
:100E4000D70A0000DD0A00004F0B0000550B000020
:100E50005B0B0000610B0000730B0000790B0000BE
:100E60007F0B00008B0B0000850B00006D0B00005A
:100E7000910B0000670B0000970B00009D0B00001A
:100E8000A30B0000A90B0000AF0B0000B50B000086
:100E9000BB0B0000C10B0000C70B0000CD0B000016
:100EA000D90B0000EB0B0000D30B0000DF0B0000A0
:100EB000E50B0000F10B0000390C0000330C0000C2
:100EC00010B5054C237833B9044B13B1044800E046
:100ED00000BF0123237010BDB06900200000000096
:100EE000A056000008B5034B1BB10349034800E0BE
:100EF00000BF08BD00000000B4690020A05600003B
:100F0000A3F5803A704700BF174B002B08BF134B67
:100F10009D46FFF7F5FF00218B460F461348144A04
:100F2000121AFFF7C3FB0E4B002B00D098470D4B56
:100F3000002B00D098470020002104000D000D4830
:100F4000002802D00C4800E000BFFFF7D5F92000D0
:100F5000290000F039F9FFF7BBF900BF00000800D5
:100F60000000000000000000001000204068002089
:100F70008C880020000000000000000000F020BF6E
:100F8000FFF7FCFFFEE700F01BBFFFF7FCFFFEE7EB
:100F900000F016BFFFF7FCFFFEE700F011BFFFF700
:100FA000FCFFFEE700F00CBFFFF7FCFFFEE70000D0
:100FB00072B6002383F3138883F31188184614490B
:100FC000D1F89020C2F307229A421AD100234FF0A1
:100FD000FF30104A03F120010133102B42F82100A9
:100FE000F8D100234FF0FF3003F160010133102BE3
:100FF00042F82100F8D162B6BFF34F8FBFF36F8F75
:101000007047C1F89830C1F8A0000133DCE700BF99
:1010100000ED00E000E100E04FF47F03D3F8302161
:10102000D3F83401BFF34F8F092A03D1431E58422E
:1010300058417047002070475B4A08B5D2F8D0305D
:1010400043F00203C2F8D0304FF47F03D3F83021CD
:10105000D3F83431BFF34F8F092A01BF4FF050232B
:101060000022C3F81421C3F81821FFF7D5FF28B1D7
:1010700001224E4BC3F8382AC3F878254FF47F037A
:10108000D3F83021D3F83431BFF34F8F092A05D17B
:10109000012B1EBF0122454BC3F87825FFF7BCFF8B
:1010A00018B10E22424BC3F8E42E4FF47F03D3F85D
:1010B0003021D3F83431BFF34F8F092A06D10022F3
:1010C0003A4BC3F80C270122C3F810270022D300A3
:1010D00003F57F03D3F80013BFF34F8F013108D01E
:1010E000D3F800130132D3F80433B2F5807F0B60DC
:1010F000EDD1304BDA69BFF34F8FD10743D52E4B7B
:10110000D3F80024012AFBD1C3F80425D3F8002426
:10111000012AFBD1274BDA69BFF34F8FD2070AD5DB
:10112000DA6922F00102DA61BFF34F8F224AD2F866
:101130000034012BFBD11F4A136ABFF34F8F0133D9
:101140000CD1136A23F0FF0343F020031362BFF3B3
:101150004F8F194AD2F80034012BFBD10022164BD5
:10116000C3F80425D3F80024012AFBD1BFF34F8F25
:101170000D49124BCA6802F4E0621343CB60BFF31F
:101180004F8F00BFFDE71B6ABFF34F8F0133B6D00F
:10119000054AD2F88C3043F44063C2F88C30084BD7
:1011A000084A1A6008BD00BF00ED00E00040005092
:1011B00000A003500080FF00009003500400FA05D7
:1011C000406700200090D0030248024903B400F0B9
:1011D00003F80020A5EDF5FE08B5124B83F30A884D
:1011E00001F042FD58B901F0B1FE40B901F0C6FE70
:1011F00028B901F0C5FE28B101F0C4FE20B100F00D
:101200008CFF07E001F0C0FE00F0DCFE00F0FEFE07
:1012100000F0D8FD00F0C2FE00F0D5FE00F0CEFDDB
:10122000002008BD0004002038B5D1E9022305469E
:101230000C46D1E90001A847206038BD10B513461F
:101240000C461AB1084B1B68D3E90023214600F075
:101250003DFE00F0C3FD054B1B68834202D000F049
:1012600065FF206010BD00BFE06E0020EC6E002026
:101270000020704740F20110704770B5054601F03C
:1012800019F90646284601F017F8044608B9002067
:1012900070BD01463246284601F04CF80028F6D1D0
:1012A00023681869F4E70000F0B589B006460F46D8
:1012B00001F000F90546304600F0FEFF044630B963
:1012C0001DB16FF0810009B0F0BD00F026FF23686A
:1012D000DB689B0503D5002D45D100F01EFF2A4693
:1012E0002146304601F026F818B1002DE9D100F072
:1012F00014FF3946204601F00BF818B1002DE0D15B
:1013000000F00BFF284601F0EAF80646EFF31085DF
:1013100072B60146204600F05BFF074685F3108851
:1013200010B96FF08200CEE701F024F805460028DE
:10133000F7D0384600F034FF002302462146284605
:10134000CDE90433CDE90233CDE900634FF0FF333B
:1013500001F012F829462046044B9B68079309B018
:10136000BDE8F04018476FF08000ACE7FC54000087
:101370002DE9F04F0D469FB00B930646174601F03E
:1013800099F8EBB207932B140446C5F307290C9385
:1013900016D520B16FF080001FB0BDE8F08F00F0CF
:1013A000BCFEB9F1040F10D8079B042B0DD802E046
:1013B000079B042B07D8079B4B44042B03D806E05C
:1013C000B9F1040FF4D9002CE4D100F0A6FE2046B8
:1013D00001F085F873000A9040F1A58016F0E00F47
:1013E000F5B203D0002CD5D100F097FE804B53F816
:1013F0002580B8F1000F01D100F08FFED8F8003041
:1014000022464146986800F095FF20B1002C40F03C
:10141000E98000F082FE4046C6F3072100F078FF25
:1014200018B1002CB6D100F078FEEFF3108672B63A
:1014300040460A9900F0CCFE054686F3108820B994
:10144000002C40F0D28000F068FE002328462B607C
:1014500000F0A6FE064601F03AF84FEAC90B0890E4
:101460000090012322465946384601F003F818B18E
:10147000002C8FD100F051FE079B2246DB00099320
:10148000089B099900930B98022300F0F3FF20B109
:10149000002C7FF47FAF00F040FE202200210EA838
:1014A00000F014FE2022002116A800F00FFE5A467C
:1014B00039460EA800F0D4FD0EAF099A0B9916A874
:1014C00000F0CEFDBA46BB44D3454ED14FF0000AE2
:1014D0000AF1010AD14559D8DDF824A016AFBA4463
:1014E00057456FD1284600F045FF054620B9002C2E
:1014F0007FF450AF00F011FE0B9B41460593079B14
:101500002846049316ABCDE902930EAB01930A9BD8
:10151000324600930C9B00F02FFF364B2946404685
:101520009B68984738E7304600F04AFE0A9905461E
:1015300000F06CFE20B1002C7FF42CAF00F0EDFD2C
:101540006B68012B04D1002C7FF424AF00F0E5FD83
:101550006B68022B3FF41EAFD5F81480B8F1000F72
:101560007FF479AF00F0D9FD75E7089B2246009320
:10157000DAE90001012300F07DFF20B1002C7FF4A7
:1015800009AF00F0CAFD0AF1080A9DE7BB465346C1
:10159000DBF80800DBF80C203968024491420AD2DB
:1015A0007A680A44904206D20D93002C7FF4F2AE82
:1015B00000F0B3FD0D9B013399450BF1080BE7D803
:1015C000083785E7089B22460093D7E900010223EC
:1015D00000F050FF20B1002C7FF4DCAE00F09DFD48
:1015E00008377DE76FF08100D6E66FF08200D3E622
:1015F0009C790020FC5400002DE9F04389B004469A
:1016000000F058FF0546002C3FD0630003D50028AA
:101610003BD100F082FD284600F061FF8046204665
:1016200000F0CEFD4146074600F0F0FD10B165BB6D
:1016300000F073FDD7F81490B9F1000F01D100F05C
:101640006CFD384600F096FE064608B900F065FDD0
:101650007B68012B02D1C5B900F05FFD002349462C
:101660003046CDE90433CDE90233CDE9008322468B
:101670006FF0010300F080FE31464846044B9B6842
:10168000079309B0BDE8F043184709B0BDE8F083FF
:10169000FC54000070B505460E4600F031FE0446CD
:1016A00008B900F03AFDA36B1D4201D100F035FDF1
:1016B000002E09DA236C1D4206D1054BE56319683B
:1016C00004F11C0000F0E2FB206C284070BD00BF5C
:1016D000EC6E002073B50E46054610B1431E034262
:1016E00001D000F01AFD00F00BFE044608B900F02E
:1016F00014FD2368986800F0DCFD022300900022AE
:101700003021304600F0B6FE08B100F006FD236C33
:101710000BB900F002FD236C1D4201D100F0FDFC6D
:101720002946204600F09DFD58B1012300F110012B
:1017300040F8083C3022304600F092FC002002B015
:1017400070BD6FF08B00FAE770B506460D4600F0ED
:1017500073FE044608B900F0E0FCA3681B68DB6870
:101760009B0501D500F0D9FC3046E56100F028FD6D
:101770002A460146A068BDE8704000F06FBD2DE923
:10178000F3470E469046994600F056FE044608B9C7
:1017900000F0C3FCA3685B681B68986800F089FDD3
:1017A00023698246002B01DA00F0B7FC032E01D931
:1017B00000F0B3FC04EB86073D6ADDB10223002292
:1017C00049464046CDF800A000F054FE08B100F0B4
:1017D000A4FC3D6A04EBC6044D4528BF4D46404677
:1017E0002A46216C00F03CFC236C2B4423643B6AAA
:1017F0005B1B3B62284602B0BDE8F08770B50E4621
:10180000154600F019FE044608B900F086FC23696D
:10181000002B01DA00F081FC032E01D900F07DFCE1
:1018200004EB8601086A58B185422A4628BF024661
:1018300004EBC604236C801A134423640862104628
:1018400070BD2DE9F7430D4690461E4600F0F4FDAD
:10185000044608B900F061FCA3685B681B689868DF
:1018600000F027FD23698146002B01DA00F055FCCA
:10187000032D01D900F051FC04EBC5070C3554F8D9
:1018800025307A6E9B1AB34201D200F046FC012348
:10189000002231464046CDF8009000F0EBFD08B143
:1018A00000F03BFCD7E9180332464146184400F0EB
:1018B000D7FB7B6E33447B6603B0BDE8F08300004A
:1018C0002DE9F04180460C4600F0B6FD054608B90A
:1018D00000F023FCAF680FB900F01FFC404600F099
:1018E0006FFC2B690646991C12D05A1C15D154B3B3
:1018F00014F1820F05D10146384600F09BFC00230D
:101900001FE014F1830FFAD000F007FC0024F6E783
:101910000146384600F08EFCF8E7002BF4DB284641
:1019200000F064FE3B68DB689B0503D53146384612
:1019300000F080FC14F1810FE1D1AB69002B04DAD7
:101940000223736003E04446F4E700F0E6FBEFF3A4
:10195000108672B6044B21462846DB68984786F30A
:101960001088BDE8F08100BFFC54000008B500F00D
:10197000B9FCBDE80840082100F04CBE10B500F0ED
:10198000BFFC044608B900F0C8FB236C1B0701D458
:1019900000F0C3FBEFF3108272B6236C23F0080350
:1019A000236482F3108810BD70B5064600F0A8FCD1
:1019B000044608B900F0B1FB3146206800F045FE4E
:1019C000054608B900F0A9FB6B680BB100F0A5FB58
:1019D000236C1E4201D100F0A0FBEFF3108372B61E
:1019E000206C20EA0600206483F31088E86801F088
:1019F00071F9E868BDE8704001F046B901F0E0BA5D
:101A000038B5054600F07CFC044608B900F085FBBB
:101A10002068294600F019FE044608B900F07DFB55
:101A2000E068BDE8384001F02FB938B5054600F050
:101A300067FC044608B900F070FB2068294600F0F6
:101A400004FE044608B900F068FBE06801F02CF9D8
:101A5000012038BD70B5054600F052FC044608B9B7
:101A600000F05BFB2946206800F0EFFD064608B950
:101A700000F053FB73680BB900F04FFB236C1D4261
:101A800001D100F04AFBEFF3108372B6206C20EA1C
:101A90000500206483F3108870BD08B50C3000F099
:101AA00001FA002008BD0000F8B506460D4621B138
:101AB00018B103680BB143680BB900F02EFBD6E9EF
:101AC00000345E68EFF3108772B6236B05F1840271
:101AD0005A60236BE16BC5F88430234643F8302FFE
:101AE000C5F88830236C314243EA0603236408D0EA
:101AF000194004F11C0000F0D5F9E36B23EA06035A
:101B0000E36387F31088044B05F10C00196800F0BB
:101B1000BDF90020F8BD00BFEC6E002038B5084DBF
:101B2000284600F0A5F92B6804465B6853E90801D4
:101B300000F05FFF08B100F0F0FA204638BD00BFAA
:101B4000EC6E00200022836B73B50568194300F129
:101B50003003C0E90C33AB6841F0080103746B68D3
:101B600000F1200604468163C261427442824661EC
:101B700023B900F019FF0246064B1E60AB6A2969C3
:101B800004F1100019440091E96800F047F902B02F
:101B900070BD00BFE06E00202DE9F041164E0546F5
:101BA0003368046886B00BB900F0B7FA336862692D
:101BB0005B68D2F80480203B9C4210D1EFF3098788
:101BC00000220E4B696802A8CDE9008700F0BAFA3E
:101BD00002A800F0DBFA059806B0BDE8F081616864
:101BE0005B681768994202D0206800F002FF3368F2
:101BF00020345C60E4E700BFEC6E00206707000063
:101C000070B50E4E8B6B32680C46526853F81C1C34
:101C100052F81C2C05468A4203D053F8200C00F0E1
:101C2000E8FEA36B326853605B6883F30B88E36A5A
:101C300083F30988A06A256370BD00BFEC6E0020A5
:101C4000F8B501F00C030C2B14BF0446144611F038
:101C5000400607460D4627D0A36913F8026C85F0AD
:101C60000803C3F3C003B3EBD61F01D000F055FA4D
:101C7000422E30D01BD8402E29D0412E1ED04D48A8
:101C8000C71B082F01D900F048FA132E00F28F80ED
:101C9000DFE806F02733373C43484D52575E646B0C
:101CA0007074777B7E81858900F037FAD7E7802EC4
:101CB000E5D12046BDE8F840FFF76EBF00F020FCFC
:101CC000054601463B4800F02AFA2846F8BD204662
:101CD00000F0A2F9F9E739462068BDE8F840FFF7BF
:101CE0008FBFFFF7C7FA206000F078F8324B1B680F
:101CF0008342EAD000F01AFAE7E72068FFF7BDFA5E
:101D0000F1E7D4E90001FFF7CFFAECE7D4E90223C9
:101D1000D4E90001FFF72CFBE5E72068FFF76CFC36
:101D20000020E0E7D4E90001FFF7B4FCDBE7D4E9E9
:101D30000001FFF7CFFCD6E7D4E90001FFF704FD6F
:101D4000EEE7D4E90223D4E90001FFF718FDCAE762
:101D50002068D4E90112FFF751FDC4E7D4E902235A
:101D6000D4E90001FFF76DFDDAE7D4E90001FFF7E0
:101D7000A7FDD5E72068FFF7F9FDD1E7FFF7FEFDE6
:101D8000CEE72068FFF710FECAE7FFF737FEC7E788
:101D9000FFF76EFAA7E72068FFF732FEC0E720687A
:101DA000FFF743FE9FE72068FFF754FEB8E76FF0A8
:101DB000830098E700080020EC6E002041DF7047A8
:101DC00000F0ABB908B500F0E3FD034B986000F0FC
:101DD000E5FD80F3888808BD00ED02E0044B18683B
:101DE00010B14378012B00D170478068F8E700BF3D
:101DF000F06E0020C9B20129064B417005D11A6866
:101E00002AB101781278914201D3034A1068186010
:101E1000704700BFF06E0020F46E0020F7B5164644
:101E2000124A044610680D461F4618B123780178FF
:101E3000994211D3A060146020460121FFF7DAFF18
:101E4000089B3246CDE900732946606825F00103FE
:101E500000F078F903B0F0BD0246806810B1017857
:101E60009942F9D3A0609460E6E700BFF46E0020C9
:101E700038B50546FFF7B2FF044600F057F905B143
:101E80002C606068BDE8384000F080B90223016032
:101E90004B70024B1A68024B1A607047F46E0020B8
:101EA000F06E002038B5044600680D4660B14378F6
:101EB000022B09D10121FFF79DFF236829465868AD
:101EC00000F031F90023236038BD000070B572B610
:101ED0001446EFF30B855FF0000C002A1FBF8CF354
:101EE0000B886C46954683F30B880A4A01231360DE
:101EF00062B6FFF799F972B65FF0000C002C1EBFB6
:101F00008CF30B88A54685F30B88024C00252560D1
:101F100062B670BDF86E0020402010EA0E0016D0A8
:101F200001B500F033FBBDE8044088420FD0EFF369
:101F30000982EFF30B8322E9F00F80E81C4091E85F
:101F40001C40B2E8F00F82F3098883F30B887047D6
:101F5000EFF308807146EFF3098206B4FFF770FED5
:101F6000864606BC00F0080001F00803C01A01DC38
:101F70000DDB704706B42DE9F00F074C25462646C9
:101F80002746A046A146A246A34630B4704730BCBF
:101F9000BDE8F00F06BC7047A5EDF5FE084BDA680A
:101FA00082F07F4282F47F0242F48042DA600022B3
:101FB0001A765A76DA76DA77602283F8222070472A
:101FC00000ED00E07047EFF3148030F0040080F380
:101FD0001488BFF36F8F7047044601229443204654
:101FE000214622462346254626462746A046A146A8
:101FF000A246A346A446044708B500214FF0FF308F
:1020000003F0EAF90028F8D130BFF6E70122014BCE
:102010001A607047FC6E0020F7B5D0E901670446EE
:1020200000F06EF9054608B900F077F82B6898685B
:1020300000F03FF90223009000223046B9B200F0D0
:1020400019FA18B10323236003B0F0BD034B1B68DA
:10205000012BF7D100F0E4F9F4E700BFFC6E00209B
:10206000F0B504468AB341EA040515F0010513D121
:10207000012A23D941EA040313F0020312D1D6182E
:10208000032E15D86FF00306930806FB032204EB1A
:10209000830401EB830116E011F8013B013A04F8D7
:1020A000013BDFE731F8023B023A24F8023BDFE76D
:1020B000CE1A3768E61A3760043BE0E70023DEE714
:1020C0006B5C2B550135AA42FAD1F0BD0346F0B541
:1020D000C9B29AB19C0715D115460C0444EA0164B3
:1020E0000C4344EA0124D618032D0FD822F003052F
:1020F0002B446FF00305940805FB04221A44934215
:1021000008D1F0BD03F8011B013AE2E7771B3C6000
:10211000043DE9E703F8011BF1E700F051BF08387F
:1021200080F30888084703681962704704484FF035
:1021300080510160BFF34F8FBFF36F8F7047000076
:1021400004ED00E02DE9F843099C1F460E4BA4F175
:10215000080644E90233483C05468846914600217A
:1021600040222046FFF7B2FF4FF0807346F8043C50
:102170006FF0020346E9037846F8209CEB60089B69
:10218000C5E90043BDE8F883A5EDF5FE436883F398
:102190000B880368203383F30988C0687047000008
:1021A000054A1368013303F007031360034A013340
:1021B000801A03EBC000704790790020006F002068
:1021C00018B1024B013803EBD0007047006F0020BC
:1021D00070B505460C480E4600F096FB044688B1E3
:1021E000A0220021FFF772FF0023AA68C4E901368C
:1021F00004F1980365615360C4F8982045F8083FDE
:10220000C4F89C50204670BD006F002038B50446CD
:102210000D460146054800F090FB28B1A36804482C
:10222000AB4208BF002038BD0148FCE7006F00202A
:102230000500008038B50024CC60EFF3108572B63D
:102240000548D1E9262353601A6000F06BFB85F343
:102250001088204638BD00BF006F002000200A60B3
:102260007047426BF0B500F13005AA4203461ED01C
:10227000EFF3108472B6426B0020AA4204D11A6CAC
:1022800022EA0101196408E052F87C7CA2F184067C
:102290003F687F688F4208D110B184F31088F0BD89
:1022A000D2E900707860076030465268E5E70020A8
:1022B000F5E701207047000030B5094C024661681F
:1022C0000023084640B10568AD68954205D11BB1B1
:1022D000026960601A61016130BD03460069F1E77F
:1022E00094790020054A0346506800B97047026897
:1022F00052689A42FAD0406CF7E700BFE46E0020C3
:10230000024B1B6858682038704700BFEC6E0020F5
:1023100003680748DA681B6912F4806F03D18B42A7
:1023200028BF002070478B4208BF0020704700BFC5
:102330000300008038B505462AB10B68DB68DB0571
:102340000DD5002038BDFFF7DBFF044608B9FFF7C5
:10235000E4FE0022236899692C338A4201D10448A3
:10236000F0E753F8040FA842EBD00132F5E700BFC5
:10237000050000800C3070472DE9F84A0446894674
:1023800017460021302210309B46099E0B9DFFF717
:102390009DFE0023204AE3602260204AC4F8089092
:1023A0001268301D526804F1400C203A62600D9AA8
:1023B000C4F810B0C4F88020089AA26104F1200289
:1023C0000A998B4214D10023184604F1300104F11C
:1023D00060022E1DDDF830C00832634512D1384648
:1023E0006761FFF7EDFE08B10368E361BDE8F88AB5
:1023F00050F8331042F8041B56F833104CF83310E1
:102400000133DDE756F833C041F804CB55F833C04B
:10241000013342E902C0DDE743431515EC6E0020AD
:1024200008B5FFF76DFF18B103680BB1586808BD18
:102430004FF0FF30FBE7000010B5FFF7C1FE044688
:1024400001460A4800F079FA68B1E268084B9A42FE
:102450000AD1FFF7E5FF63695B681B685B6883422D
:1024600002D104F10C0010BD0020FCE7006F002039
:102470004343151538B5049D144699B1A0B1CA431C
:10248000824201D2094838BD022B0CBF062202222B
:102490000DB942F008020CB142F0200200F0B8FA87
:1024A0000028EFD10020EEE70148ECE704000080AF
:1024B0000100008010B5FFF723FF044608B9FFF7BD
:1024C0002CFE23685868B0FA80F0400910BD08B5AA
:1024D000FFF716FF08B9FFF720FE012008BD38B549
:1024E000054648B100F041FAB5EBD07F044601D073
:1024F000FFF713FE204638BDFFF792FFF4E7000018
:102500002DE9F74300251023A0224FF429611A4832
:1025100000F0C6F9194F1A4B7D605D6000F028FA93
:10252000184EDFF86490384600F0AEF80446E0B18B
:10253000D0F80080D8F81C302BB180234A461049CF
:1025400000F00AF90546D8F8243013B1204600F00F
:1025500069F92068211D00F02DFA08B1FFF7DDFDB3
:102560002946204633689847DDE77368019303B036
:10257000BDE8F043184700BF006F0020E46E002064
:1025800094790020FC5400009C7900202DE9F04152
:10259000FFF724FC134F144B3D681B686E68012B3A
:1025A000044631461BD0D0B1103DA0F1100845457E
:1025B00015D0EFF309826B6A2033934201D9FFF7FC
:1025C000ACFDD8F804106B688B4206D054F8100CA0
:1025D00000F00FFA08B1FFF7A0FD61683C603046DB
:1025E000BDE8F081EC6E0020F86E002030B56FF091
:1025F0000304002300F13002241A52F8041B29B10D
:10260000D0F8801054F8125019444D600833202B34
:10261000F3D130BD70B50D46044608B9FFF77DFD16
:10262000EFF3108672B6236CE16B2B4329422364CF
:1026300008D0194004F11C00FFF734FCE16B21EADB
:102640000501E16386F3108870BD70B591B14B1E32
:102650000B400FD1846900F1300202EB8402142494
:102660000C26C56904FB0522056A06FB0522456A9E
:102670009D4201D1002070BD04FB032006698E42FB
:10268000F9D00133F4E70000F8B5054608B9FFF7C3
:1026900044FD2C4E346814F1290F50D82A4B196888
:1026A00004F128038B424AD2236AA26903EB430355
:1026B0000C32606A1344E2690244E04302EB820296
:1026C0001344B0EB830F4FEA830202D3A31899425D
:1026D00001D2FFF722FD23681C4A1B0C1B04934206
:1026E00001D0FFF71AFD2388B3F5817F01D3FFF7EF
:1026F00014FD6368002B01DAFFF70FFD144A176819
:1027000007F148031360134A1268934201D9FFF797
:1027100004FD236AA26903EB43030C32616A13448C
:10272000E2693C600A4402EB82021344326802EB25
:10273000830333606B687B646F603846F8BD0027A5
:10274000FBE700BF446700200C55000000005F5FFE
:1027500048670020105500002DE9F04F85B08846ED
:1027600091460746029300B109B9FFF7D6FC3E68CF
:10277000B26906F1300303EB82030193F569274B3D
:10278000D3F800A095B1142000FB05A51D60244BD3
:102790001B689D4201D9FFF7C0FC00255446AB469B
:1027A000F3695B4502D9BAF1000F03D1284605B0A1
:1027B000BDE8F08F1422019B02FB0B320023236142
:1027C000B368C4E90027990544BF53681D4304F169
:1027D0000803C4E90233D3689A0516D5B9F1000F8E
:1027E00002D0029A802A03D00393FFF796FC039B42
:1027F00013F0E00FDAB202D159F822301BB1039284
:10280000FFF78BFC039A49F82240D8F804300BF10B
:10281000010B2361C8F804401434C1E74C67002061
:10282000145500002DE9F047054608B9FFF775FC7F
:102830004FF014090C22002740F2011A2E68B369E8
:1028400006F1300404EB8304F36909FB0344336AA3
:1028500002FB034409FB07F1736A01EB0408BB4266
:1028600001D8BDE8F087AB6BD8F810202846134399
:10287000AB630B594146984708B1FFF74EFC3388CC
:10288000B3F5807F05D1D8F80C0000F0FDF90137D1
:10289000E0E75345FBD1D8F80C0000F005FAF6E765
:1028A0002DE9F04116461D46044640B33BB302F104
:1028B000080803FB08F707F110028A421FD1002124
:1028C000FFF704FC04F1080C04F110026046134603
:1028D0000021C4F80CC001318D42436003EB080EA7
:1028E000C3E9000C184608D10020A7EB0807C4E98B
:1028F00000653A44A260BDE8F0817346EBE7014809
:10290000F9E700BF0100008058B1C3680830834276
:1029100006D0D3E9001203F108004A601160704745
:10292000002070478268A1F10803536041F8082C29
:1029300040F8083F41F8040C70470346024653F83C
:10294000100B526899420ED3083002FB00329142BC
:1029500009D20839C91AB1FBF0F300FB1310B0FA21
:1029600080F040097047002070474FF0FF307047FB
:102970007047000008B500F0A1FB0822034BC3F824
:102980008021BDE80840FFF71BBA00BF00E100E06E
:10299000014B1868704700BF18550000014B1B68B9
:1029A0001868704718550000014B1B68586870473D
:1029B00018550000F0B510B943F6DA30F0BD002923
:1029C000FAD0012300220C2414250B60016A8A42EC
:1029D00001D10020F2E704FB02F3D0E9067603EB15
:1029E000870305FB063303449B6B1B07E4D40132CA
:1029F000EDE7EFF3148311F00F0F0CBF012200225B
:102A000062F3000383F31488BFF36F8F00207047D5
:102A100012F020032DE9F0410646884609D0EFF375
:102A20009483DC074FF012034CBF42F0080222F0FF
:102A30000802100702F0060148BF43F0040306290C
:102A40003DD143F001052A4641463046FDF7CAFD17
:102A5000002814BF012000202AD146E800F2B0442B
:102A6000110E120208F1FF3747E800F34FEA136432
:102A70001ED51B021CD58C421AD046E800F447E84C
:102A800000F700F08AFB240E84424FEA176733D325
:102A900000F085FB87422FD8204600F079FB2A46BC
:102AA000C6F1010101443046FDF79CFDA8B90020A4
:102AB000002814BF00206FF07F00BDE8F08191076F
:102AC0003ED543F00805BEE7204600F05FFB064612
:102AD00000F067FB2A460146E5E70134A742F3D838
:102AE000384600F053FB2A46A8EB0001FDF77AFDBB
:102AF000003818BF0120DBE700F062FB8442D6D328
:102B000000F060FB8742D2D8204600F053FB2A46F3
:102B1000C6F1010101443046FDF764FD0028C6D02E
:102B20000134A74203D8384600F03EFBDBE72046DD
:102B300000F03AFB064600F047FB2A460146EAE76A
:102B40004CF2DA20B9E700002DE9F0413B4C86B0A9
:102B50003B4800F09BFA236801255A1C0193394B2E
:102B60002260DA681B694FF44078039300233448ED
:102B700001A902920495ADF814808DF8163000F08A
:102B800049FA20B143F6DA3006B0BDE8F081236897
:102B90008DF816005A1C01932B4B294802932B4B9E
:102BA00001A9CDE903352260ADF8148000F032FAB6
:102BB0000028E7D1022740F2011623688DF816009D
:102BC0005A1C0193224B1E480293224B01A92260FA
:102BD00003930497ADF8146000F01CFA0028D1D1DB
:102BE00023688DF816005A1C01931B4B144802935E
:102BF0001A4B01A9CDE903352260ADF8148000F02D
:102C000009FA0028BED123688DF816005A1C0193DA
:102C1000134B0B480293134B01A92260CDE90337F4
:102C2000ADF8146000F0F6F904460028AAD12A464F
:102C30002946034800F0D6F92046A5E71C7A002073
:102C40005067002018550000C002000080070000F7
:102C50000008002000100020C00E0000C00E000080
:102C6000002000202020002008B500F081F800F0AE
:102C70008FF828B900F0A6F810B9FFF765FF08B182
:102C800043F6DA3008BD000043B2002B08DB012216
:102C900000F01F0002FA00F0024A5B0942F823002C
:102CA0000020704700E100E043B2002B0DDB012261
:102CB00000F01F0002FA00F05B09054A203342F8D9
:102CC0002300BFF34F8FBFF36F8F0020704700BF0B
:102CD00000E100E043B2002B09DB012200F01F00FD
:102CE00002FA00F05B09034A603342F82300002037
:102CF000704700BF00E100E00020034BD8765A6A1D
:102D000042F470225A62704700ED00E00349044B20
:102D1000CA68002092B21343CB60704700ED00E018
:102D20000800FA050020704700224FF0FF30094BE1
:102D300002F1A0010132102A43F82100F8D1D3F8A2
:102D40008022002022F00802C3F88022D3F88032CB
:102D5000704700BF00E100E008B500F0A7F90822C5
:102D6000024BC3F880211A60002008BD00E100E09A
:102D7000064BD3F8D02022F00102C3F8D020D3F8BC
:102D8000D02042F00202C3F8D020704700ED00E0EE
:102D900010B5094C00F0A4F9D4E9010100F0B6F92E
:102DA0000649074800F0C4F92169E068013900F0DC
:102DB000D5F9002010BD00BF18550000FFFF03200B
:102DC0000000012010B50021444800F001FA002164
:102DD0004FF0502000F0FCF90021414800F0F8F9D4
:102DE0000021404800F0F4F900213F4800F0F0F9DC
:102DF00000213E4800F0ECF900213D4800F0E8F9E0
:102E000000213C4800F0E4F900213B4800F0E0F9E3
:102E100000213A4800F0DCF90021394800F0D8F9E7
:102E20000021384800F0D4F90021374800F0D0F9EB
:102E30000021364800F0CCF90021354800F0C8F9EF
:102E40000021344800F0C4F90021334800F0C0F9F3
:102E50000021324800F0BCF90021314800F0B8F9F7
:102E60000021304800F0B4F92F4C00212F4800F029
:102E7000AFF900212E4800F0ABF92046002100F008
:102E8000A7F92046002100F0A3F90021294800F00D
:102E90009FF90021284800F09BF904F5B034002187
:102EA000264800F095F92046002100F091F9002114
:102EB000234800F08DF90021224800F089F9012211
:102EC0000020214BC3F88004C3F88424C3F8C00455
:102ED000C3F8C424C4F8402510BD00BF0040005012
:102EE000008000500090005000A0005000B0005042
:102EF00000E0005000F000500000015000100150B0
:102F000000400150005001500070015000800150FD
:102F100000B0015000C0015000D0015000E001504D
:102F200000F001500000025000300250001002502A
:102F300000200250006002500080025000A00250A9
:102F400000A00350002584500030005008B500F068
:102F50004FF968B900F09EFB58B9074AD36823F0CF
:102F600008031B041B0C43F0BF6343F40033D3601E
:102F700008BD45F22350FBE700ED00E0002070475C
:102F8000002070470020704770470000BFF34F8F4C
:102F90000549064BCA6802F4E0621343CB60BFF3F5
:102FA0004F8F00BFFDE700BF00ED00E00400FA0511
:102FB0000346084611460BB900F02EB903207047AE
:102FC000BFF34F8F0549064BCA6802F4E062134312
:102FD000CB60BFF34F8F00BFFDE700BF00ED00E007
:102FE0000400FA05002918BF0421002A18BF022294
:102FF000036807481143186359605A6842F0010298
:103000005A60BFF34F8FBFF36F8F0020704700BF30
:1030100004AAFF004A68034612F01F0070B529D1C8
:103020000E680F2E26D81C6822F01F0265686060AB
:10303000A6600B7C03F0010313438A7CD20002F0EC
:1030400018021A434B7C5B0003F006031343E36052
:103050008B68013B23F01F02CB685B0003F00E037B
:10306000134343F0010323616560BFF34F8FBFF348
:103070006F8F70BD0120FCE7036800205A68C9B259
:1030800058609960D86018615A60704738B5054635
:1030900003681C68C4F307240CB9204638BD013C02
:1030A00021462846FFF7E8FFF6E700000722024B1B
:1030B000C3F80423704700BF003000500022074BC4
:1030C000C3F80021D3F80011C3F80421D3F8041188
:1030D000C3F80821D3F80831704700BF0030005012
:1030E00000231720084A03F5C0710133202B42F852
:1030F0002100F8D10023172003F5E0710133202BC4
:1031000042F82100F8D170470030005010B540F26D
:103110000714064AC00BC90B884200D910BDC3B2C0
:1031200003F5C07342F823400130F5E7003000504A
:1031300010B540F2071400F1604001F16041064A09
:10314000400B490B884200D910BDC3B203F5E073B0
:1031500042F823400130F5E700300050C0F30E0381
:10316000C3F50043B3FA83F3C3F11B03064AC0F36C
:10317000C730DBB240F4807043F48073C2F80005BE
:10318000C2F80435704700BF00300050C0037047DC
:10319000C00300F5FF407F307047002070471F20BC
:1031A00070474FF40040704700F57F40C030400347
:1031B000704700004303014818447047FF1FF81F81
:1031C000402070475F2070474FF400507047000068
:1031D000002914BF4FF480720022044BC0F3073063
:1031E00000F5007043F82020704700BF0030005009
:1031F00008B5FFF781FD60B9FFF788FD48B9FFF713
:1032000091FD30B962B6FFF78FFD10B9FFF7A4FD4D
:1032100008B143F6DA3008BD38B543680C2B01D04D
:10322000022038BD4B68042BFAD14FF0FF330468FD
:103230000D6820682B600028F2D0A1680029EFD02B
:103240002622FFF7E5FB0028EAD161680B4B994283
:103250000AD9A2682D338818984208D82068FDF74B
:103260004CFA00202860DCE7054B9942D8D9A268C7
:10327000044B88189842D3D8F0E700BFFF01FF0045
:103280002F01FF003801FF0001680E4A03469142FA
:1032900015D1C169A2F11022A2F1EF1291420ED113
:1032A0008268012A0BD8C26812B101698A4206D02D
:1032B000586928B19B691B1A584258417047012030
:1032C000704700BF55AA00FF0D4B70B59E68A6B1B0
:1032D0003046FFF7D9FF044678B9F3686BB9356912
:1032E0000DB9204670BD2846FFF7CEFF28B9EB6820
:1032F000B34202D12E462D69F2E70124F1E700BF67
:10330000207A00202DE9F041394E3468D4B1B468F8
:10331000C4B1002861D000295FD001FB00F5B5FBE6
:10332000F0F0884259D1291D57D8AA070DD025F0B1
:1033300003020432F46803E0616891424FD2A46949
:10334000002CF9D12046BDE8F0812A46F2E7891A1F
:10335000232904F12007D4E9050C1AD80123A3601E
:10336000A0B1C0F818C0A36903B158610023C4E933
:1033700005333369DB0702D5FFF7A6FFA0BB2A465A
:10338000002138463C46FDF791F9DBE7C6F80CC052
:10339000E9E702F1200804EB08032039C3E9011E24
:1033A0002169DFF850E0DC60196144F808E0AEF113
:1033B000102EAEF1EF1EC3F81CE001B1CB60C3E9E3
:1033C000050C40B18361996901B14B610121236111
:1033D000C4E90121CAE7F360F5E70024B2E7D4F8B5
:1033E00008E0BEF1000FB2D00120FCF771FF00BF72
:1033F000207A002055AA00FFF8B5054600285DD0C8
:10340000394F3B68002B59D0BA68002A56D0834206
:1034100003D87A681344984202D30120FCF758FF7E
:10342000A0F120042046FFF72FFF0028F5D155F822
:10343000183C012BF1D155F8146C45F8180CB6B1B5
:10344000B368002B3BD155F81C3C03F12002736894
:103450001344736055F8103C336103B1DE602046BD
:1034600020220021FDF722F9234634461E4620691A
:10347000002830D08368002B2DD163684268203348
:10348000134463600369D4E905212361CAB9F1B922
:10349000426981696261A161DAB19461A26902B194
:1034A000546103B1DC6020220021FDF7FFF83B6985
:1034B0009B0703D5FFF708FF0028AED1F8BD0646ED
:1034C000D5E79161A1690029E2D04A61E0E7F9609E
:1034D000F8E7FC60E2E7002EE9D1FB68A36103B1E5
:1034E0005C61FC60E3E700BF207A002038B50D4640
:1034F0001422002104461248FDF7D8F81149124859
:1035000001F02AFF232D1AD914F003031FBF043D35
:10351000ED18C3F10403E4182A4600212046FDF704
:10352000C5F8074B094AC3E900459C602260A2F137
:103530001022203DA2F1EF126560E261DC6038BD2F
:10354000207A0020F93300000533000055AA00FF5F
:1035500010B50446406A10B1A16A00F01DF9606A16
:1035600001F0F4FE0020C4E9090010BD38B504469E
:10357000FFF7EEFF236A2C22012B0CBF05466FF0EC
:10358000960500212046FDF791F8284638BD000039
:1035900037B505460B480C46037ADB070ED50023EA
:1035A0000A460193294601AB00F064F820B9019B5B
:1035B000A34218BF6FF0930003B030BD6FF08800D6
:1035C000FAE700BF347A002008B500F03DF807485C
:1035D000037A13F0060F03D008220021FDF766F8E6
:1035E000BDE808400C21014800F0D6B8347A00202C
:1035F00038B50E4C217A11F0010112D10822204673
:10360000FDF754F80222237A62F34203237200F09A
:103610000FF8054638B9237A43F001032372284690
:1036200038BD0025FBE7FFF7CFFFF8E7347A00202D
:10363000044A002092F8803543F0010382F8803577
:10364000704700BF407A0020F8B5094C2025264677
:10365000012720462762FFF789FF013D04F12C0472
:10366000F7D196F8803565F3000386F88035F8BD0C
:10367000407A002038B5002014461D4600F05EF860
:1036800028B92B68A34218BF6FF0930038BD6FF0C4
:103690009200FBE710B50C4C236813B10B4B1B6871
:1036A0002BB900F089FC30B90122084B1A600123C4
:1036B0000020236010BD0138062801D9044810BD40
:1036C000044B53F8200010BDC47F0020C87F0020A9
:1036D000FE8FFFFF2C5500002DE9F043144C154FD1
:1036E000002818BF0446236883B0BB421CD016468E
:1036F0000D4620464FF4147104F1040900F04CF813
:1037000004F58E78484600F045FB404600F0D2F8BC
:103710002B464A4640460849009600F0EDF900B9AC
:10372000276003B0BDE8F083002003B0BDE8F0835C
:10373000CC7F0020A5BCC95A113E000070B50E4DCB
:1037400082B0002814BF8446AC461D46DCF8000059
:103750000A4B98420DD100260CF58E703346009628
:10376000144600F0F3F9002818BF34462C6002B06C
:1037700070BD0348FBE700BFCC7F0020A5BCC95A41
:10378000E88FFFFF38B131B1002201440346013018
:1037900081421A70FAD1704738B131B10022014428
:1037A0000346013088421A70FAD1704770B590B064
:1037B00000287AD03E4C0D4640223621064620464F
:1037C000FCF774FF40225C21A018FCF76FFF2B1D53
:1037D0009C4203D204F144039D4252D32B682268D9
:1037E000534023602B68226C534023646B686268EB
:1037F000534063606B68626C53406364AB68A2685B
:103800005340A360AB68A26C5340A364EB68E268CA
:103810005340E360EB68E26C5340E3642B69226938
:1038200053402361226D2B695340236562696B69A4
:10383000534063616B69626D53406365AB69A26914
:103840005340A361AB69A26D5340A365EB69E26984
:103850005340E361EB69E26D5340E365002130467C
:1038600001F0E2F8044628B940223046104901F040
:10387000EFF8044640216846FFF78EFF204610B05F
:1038800070BD631E04F13F01013D1F3415F8010FA7
:1038900013F8012F42401A7011F8012F2878A34223
:1038A00082EA00020A70F1D1D8E76FF07304E5E70D
:1038B0001C82002010B54FF49A7200210446FCF7D8
:1038C000F5FE42F21072044BC4F8202104F5967004
:1038D0001B68BDE810401847686700202DE9F04FCD
:1038E00004468946924695B0002900F0A780002A38
:1038F00014BF0227012700238DF80C30002C00F0A4
:103900009F80DFF8448104AE08F1400B002120467F
:1039100001F08AF8034648B1304620210193FFF7B1
:103920003BFF019B184615B0BDE8F08F4022414691
:10393000204601F08DF803460028EDD104F1F4058E
:1039400020222946204601F083F803460028E3D1CF
:103950000122204603A901F07BF803460028DBD1B1
:10396000022F62D020460CA901F09CF803460028E3
:10397000D2D11946204601F057F803460028CBD192
:1039800040225946204601F063F803460028C3D17F
:10399000202220460CA901F05BF803460028BBD189
:1039A0003146204601F07EF803460028B4D1314666
:1039B0002046FFF7FBFE03460028ADD12022294612
:1039C000204601F045F803460028A5D120460CA961
:1039D00001F068F8034600289ED10146204601F018
:1039E00023F80346002897D140225946204601F08B
:1039F0002FF8034600288FD1202220460CA901F081
:103A000027F80346002887D12946204601F04AF8C6
:103A10000346002880D19DF80C200132D2B2BA4270
:103A20008DF80C20FFF472AF76E7524649462046E7
:103A300001F00EF80346002894D06DE701275AE7FD
:103A40006FF0730304AE67E71C8200202DE9F0419C
:103A500004460F4615469846D0F81801E0B013B159
:103A600000EB40004008B5F5807F3ED82844B0F513
:103A7000C07F3AD84FF4C07200216846FCF716FEAA
:103A80006946D4F82431D4F81821D4F8280198478D
:103A900070BBD4F81861B8F1000F0AD0D4E94930EE
:103AA00072080DEB0601984710BBD4F8183106EBED
:103AB000530607B18DB9324669462046FFF70EFF1F
:103AC000054610B90123C4F8143131466846FFF7A2
:103AD00063FE284660B0BDE8F0810DEB0600394674
:103AE0002A462E44FCF709FEE5E76FF00405F0E7EF
:103AF0006FF00805EDE700BF2DE9F047044604F13B
:103B0000F4050F4691461E46DDF8208000F072FF56
:103B100029462046FFF74AFE08B1BDE8F08728464F
:103B200020220121FCF7C2FDD4F81831C4F8247119
:103B3000C4F8289113B92023C4F8183142463146FD
:103B40002046BDE8F0470123FFF780BFB2F5806F44
:103B500000F295802DE9F04F89B09A46129BB3F59B
:103B6000807F00F29080D0F82431164604468846C3
:103B70004BB3D0F81C31012B05D0D0F81421D0F86C
:103B800020319A421FDD514600232046129AFFF74A
:103B90005DFF014698B900231293002E5ED0DFF836
:103BA000EC9009F1400B0021204600F03DFF202E53
:103BB0003546014628BF202504F1F40790B1084698
:103BC00009B0BDE8F08FBAF1000FE6D0129B002BD0
:103BD000E1D051461A462046FFF780FE01460028F4
:103BE000DBD0ECE749464022204600F031FF014699
:103BF0000028E4D139462022204600F029FF014662
:103C00000028DCD16946204600F04CFF0146002820
:103C1000D5D1204600F008FF01460028CFD15946F3
:103C20004022204600F014FF01460028C7D1694613
:103C30002022204600F00CFF01460028BFD1394663
:103C4000204600F02FFF01460028B8D140462A4602
:103C50003946FCF752FD761BA844A4D151462046B4
:103C6000129AFFF73BFE01460028A8D10846D4F877
:103C700014310133C4F8143109B0BDE8F08F6FF08E
:103C80000201084670476FF0040198E71C8200208B
:103C90002DE9F043202B1D460646884691468BB001
:103CA00026D8DBB202AF31688DF804808DF805307C
:103CB00006F1040821B9404600F0B6FE044640B9BA
:103CC000012302224046336001A900F0C1FE0446F0
:103CD00038B138462021FFF75FFD20460BB0BDE824
:103CE000F0832A464946404600F0B2FE0446F0E71B
:103CF00002AF1946104600233A4601F03BF804464D
:103D00000028E6D12023B9461D46CCE72DE9F04135
:103D1000D0F8F830A6B0002BD8BF02AE31DD054692
:103D20000027D0F80C4102AEA4F101089022D5F88A
:103D3000FC403146D0F8000101AB0197B8FA88F891
:103D4000A0474FEA5818044620B9019B53B9B8F16F
:103D5000000F16D030469021FFF71EFD204626B0FA
:103D6000BDE8F081014632462846FFF791FF58B979
:103D7000D5F80431019A1344C5F80431B8F1000FA5
:103D8000E8D16FF03C04E5E70446204626B0BDE8E4
:103D9000F08100BF70B50025044614222946C0F802
:103DA000F850FC30FCF782FC154B04F588761B6854
:103DB00030469847204640F8045B00F01BFE114B4C
:103DC00030461B689847C8B9D4F8F830AB420FDCCE
:103DD00003EB830204EB82022021C2F800010120E0
:103DE000C2E9421008490133C2F8FC10C4F8F830A7
:103DF000064B3046BDE870401B68184770BD00BFD9
:103E0000686700206C670020F148000070670020A0
:103E10002DE9F047202A88B078D83E4B00F5887904
:103E200004461B684846174688469847054640BBE7
:103E300040F20116D4F8F830002B63D02046FFF78B
:103E400065FF054600285FD1D4F8F830002B07DD68
:103E5000D4E94102904203D3D4F80C21012A14D0B2
:103E6000013EE9D16FF03B056E4620213046FFF759
:103E700093FC294B48461B689847002818BF6FF0F1
:103E80001D05284608B0BDE8F0871F28E8D96E4612
:103E900029462022304604F1040AFCF707FC31468B
:103EA000504600F0FFFD05460028DED1504600F0E8
:103EB000B5FD504600F09EFD2946504600F0B4FD89
:103EC00005460028D1D150462022314600F0C0FDE1
:103ED00005460028C9D1034632462021304600F06D
:103EE00049FF05460028C0D1D4F8F8303A46002BE7
:103EF000C8BF002340463146C8BFC4F80431FCF7B0
:103F0000FCFBB2E76FF03F056E46AEE76FF03B0596
:103F1000B7E700BF6C67002070670020002130B554
:103F20008DB0282202A80191FCF7C0FB02A800F086
:103F300049FF044610B120460DB030BD184D4FF07A
:103F4000FF31286800F038F90446C0B9002000F0BD
:103F500063F900BB134A02A901A800F0BBFC0446A8
:103F6000012000F059F990B9286800F02DF90028D7
:103F7000E1D00D4800F0B8F920460DB030BD0B4837
:103F800000F0B2F9012C08BF0524EDD0DEE70848A7
:103F900000F0AAF9E8E7074800F0A6F9DAE700BF61
:103FA0006467002004830020A055000048550000ED
:103FB000805500006055000010B582B000F050F848
:103FC00028B100F09FF80324204602B010BD00F095
:103FD0006BF8D8B900F020F9E0B91E4CD4F82839B4
:103FE0001B0EF02B0AD1D4F8242A1B4B9A4229D05D
:103FF00000F038F8072400F085F8E5E7062400F023
:1040000031F800F07FF8204602B010BD04242046AD
:1040100002B010BD00F026F800F074F8FFF77EFF44
:10402000044658B902460146FFF756FB30B96822EC
:104030000A4901ABFFF782FB0028C5D005242046C2
:1040400002B010BD012000F0E7F80028E2D1C4F86A
:104050000C0AE3E7001084500000E0209C8200205E
:104060000020704700207047430504D54FF0FF3211
:10407000034BC3F80821024BC3F8080A704700BF7E
:1040800000108450014BC3F8040A7047001084509C
:1040900008B100F06BB84FF47500704708B100F03C
:1040A0004FB84FF47500704710B5114800F070F824
:1040B00000B110BD0F4800F06BF80028F9D10E4C8C
:1040C000204600F065F80028F3D10C4B0C481C602A
:1040D00000F05EF801460028EBD100F02DF8044610
:1040E00008B1204610BD00F079F82046FAE700BF7D
:1040F00060670020546700205C6700206467002030
:104100005867002008B5084800F04CF8074800F050
:1041100049F8074800F046F8064800F043F8BDE8C3
:10412000084000F00BB800BF606700205467002013
:104130005C6700205867002000207047704700BF70
:10414000024610B4084CD4F8003A1342FBD021B117
:10415000D4F804310B60C4F80831034B0020C3F8D5
:10416000082A10BC704700BF00108450044AD2F8DF
:10417000003A1842FBD0C2F8080A0020704700BF7E
:1041800000108450FCF7E4B80A460021FCF78EBA10
:1041900008B5034B02681B6810689847002008BDEB
:1041A0008467002008B5034B02685B681068984775
:1041B000002008BD84670020024B02689B681068DD
:1041C000184700BF8467002008B5034B0268DB680E
:1041D00010689847002008BD8467002070B5094C1E
:1041E000094D2069AB68984718B1084B08485B68CF
:1041F00098470021074AEB6811602069BDE87040CC
:10420000184700BF9467002084670020746700206F
:10421000B85500002485002070B51B4D1B4E044688
:10422000B26828699047F8B95CB1194C2368B3B1FA
:10423000012B1BD0013B23602869F36898470020BD
:1042400070BD134C216841B90122124BC3F80025FF
:10425000114AD2F81039002BFBD101312160F368EB
:1042600028699847002070BD0C4870BD0A4AD2F8F2
:104270001039002BFBD1074A6FF07E40C2F80035A1
:10428000FFF700FF2368D5E79467002084670020CC
:10429000248500200000845000108450E98FFFFF27
:1042A000014B1B68184700BF84670020014B9B68C7
:1042B000184700BF84670020014BDB68184700BF28
:1042C00084670020BFF34F8F0549064BCA6802F48C
:1042D000E0621343CB60BFF34F8F00BFFDE700BF29
:1042E00000ED00E00400FA0530B44FF0FE32002586
:1042F000074B084C08494968C3F80024C3F8042454
:10430000C3F80824C3F80C24C4F8005530BC08478F
:1043100000108450000084507467002010B50446DB
:1043200030B16368DB0602D500232360636010BDF3
:10433000024B03485B689847F3E700BF74670020AF
:10434000D8550000B0B1436893B1DB060ED5012308
:1043500050E8002F194640E8001C9CF0000FF7D1F0
:10436000012AF5D0BFF35F8F0020704703487047E4
:10437000034870476FF4E040704700BFE98FFFFFCC
:10438000EA8FFFFF034668B142683AB1D20607D50B
:10439000BFF35F8F002210461A60704703487047D2
:1043A000034870476FF4E040704700BFEA8FFFFF9B
:1043B000E98FFFFF10B5044620B1002211232260CF
:1043C000636010BD0148FFF78FFFF6E7005600005D
:1043D000002800F084802DE9F0430C4683B00029CA
:1043E00078D01D46002B75D007461AB10122002354
:1043F0002A6003602B68002B67D02946204600F016
:10440000D7FD0346002861D12146286800F0B2FD9F
:10441000034600285AD12A68082A72D0042A73D089
:10442000A2F10208B8FA88F84FEA58180120384E6D
:10443000C6F8C401C6F84001C6F8C401626AC6F8ED
:104440003021D6F830118A42F6D14FF0000901939D
:104450004FF0FF30C6F82C91FFF706FE6FF01B02FD
:104460004846C6F80021FFF70DFEC6F80C81D6F8C5
:10447000040A40F48060FFF705FE0A22C6F83821DE
:104480000A9B012B019B2DD022692249A1FB02121C
:104490001209616A184601FB02F202EB42021C4952
:1044A000D2039209C1F8D8210122C1F82C213A681F
:1044B000296822F07F4242EA01623A60296842EAB2
:1044C00001223A6003B0BDE8F083134B184603B0F5
:1044D000BDE8F083114B184603B0BDE8F0830F4BE5
:1044E000184670474FF47F02D2F80C1C013106D0F9
:1044F000D2F80C2C0749A1FB02121209C9E71622B7
:10450000C7E74FF0030891E74FF002088EE700BFBE
:1045100000108450ABAAAAAA310CF100350CF100AE
:1045200070B50024C9004FF0010C2546A6464E1E6A
:1045300008E09E4514D00125B44516D89E460134A6
:104540000CF1010C630950F8233004F01F01CB403B
:104550001F2918BF03F00103002CEAD10125EDE764
:1045600001359542E8D1024870BD002070BD00BF02
:10457000360CF10000283FD02DE9F0414C1EB4F577
:10458000047F28D23BB332B34FF0000E7646754617
:104590007446CF0003F1FF38610950F8211004F090
:1045A0001F0C21FA0CF1BCF11F0F18BF01F0010123
:1045B000A4B1AB4218D08E4208BF0EF1010EA8453F
:1045C00015D0314601350134BC4201D00E46E3E737
:1045D0000020BDE8F0810948BDE8F0814FF0010EF0
:1045E0000E4674467546D7E70125AE46EBE77245A1
:1045F000F1D331461D46E6E700487047370CF1001D
:104600002DE9F04F91B08346DDE91B460D46002EA3
:104610004DD1096906911C6000231A990B60002A8C
:1046200000F025819E4B6A6AD3F83811D3F83031F7
:104630009A4248D10A2946D19BF80330089304F1E5
:10464000080307930423069A0593964B944CA3FB07
:1046500002139B0803EB4303A2EB430303931A9B50
:10466000069E1E60002E34D04FF000084FF0010A65
:10467000DDF81C9000F0ACFC00230993BBF1000FA7
:1046800000F0DF80002D00F0DC80089BEBB12846B5
:1046900008A900F08DFC00283ED0834B984218D129
:1046A000039000F095FC039811B0BDE8F08F4FF433
:1046B0007F01D1F80C0C01300CBF4FF40471D1F81C
:1046C0000C1C0691A7E77948EAE77948764B9842AF
:1046D000E6D0089B082B00F0C88000225B000893FE
:1046E000294608AB58460092FFF772FE704B98427D
:1046F00000F0B7800028D3D1DBF80020130A03F4C0
:104700007F03134323F07F43CBF80030059B013B2D
:104710000593A4D10020C3E72946089800F02AFC9D
:104720000028BAD1089B082B00F09580042B00F0DC
:104730009580A3F10203B3FA83F35B090493C4F8F1
:10474000C4A1C4F840A1C4F8C4A16B6AC4F8303154
:10475000D4F830219342F6D100234FF0FF30C4F853
:104760002C31FFF781FC002318466FF01B03C4F8BF
:104770000031FFF787FC049B4A4FC4F80C31D4F892
:10478000040A40F48060FFF77DFC0A23C4F8383146
:104790002B6909A8A7FB03236A6A1B0902FB03F321
:1047A00003EB4303DB039B09C4F8D831C4F82CA105
:1047B0000899DBF800200B0222F07F4243EA0163F4
:1047C0001343CBF8003000F0C5FB099B03F01A033C
:1047D00003437FF47EAFA7FB0637D4F81431B8EB60
:1047E000970F0A93D4F818310B93D4F81C310C931B
:1047F000D4F820310D93D4F824310E93D4F8283115
:104800000F9301D1039BF3B9484618220AA9183E19
:1048100009F11809FFF7B6FC08F10108002E7FF432
:1048200029AF069BB3F5047F36D8079E194630465C
:104830006A691F46FFF774FE20B300231A9A1360BB
:104840002BE71C4829E748461A460AA9F61A994454
:10485000FFF798FCE0E70323049370E70223049337
:104860006DE72B6A002B3FF41BAF134818E70122BA
:1048700029465846009608ABFFF7AAFD00283FF4EA
:10488000DEAE0DE74FF4806339463046AA69FFF784
:1048900071FE0028D1D13DE71A9B1E6019E700BFC9
:1048A00000108450ABAAAAAA020CF100300CF1004F
:1048B000310CF100350CF100320CF10010B4DDE9DF
:1048C000013401940024DDF80CC0CDE902C410BC11
:1048D000FFF796BE30B51546012487B005AB0093AF
:1048E0000022CDE9015404ABFFF78AFE07B030BDCA
:1048F0002DE9F04188B00592002968D01C46002BB4
:1049000065D01546002A62D0DFF8C8800E46D8F878
:1049100000004FF0FF31FFF74FFC00284CD1002082
:10492000FFF77AFC002843D12B4800F04BFAE8B19E
:1049300001204FF0FF37FFF76FFC002834D14FF410
:1049400008712648FEF71EFF04212548FEF71AFFCE
:1049500021482821FEF716FFD8F80000FFF734FCA5
:1049600000282DD1384608B0BDE8F0811B4B024627
:10497000029307AB0390009317491948019405ABC4
:10498000FFF79CFF0028D3D12368AB42D0D307990F
:1049900007462A4630460831FFF7F4FB0120256020
:1049A000FFF73AFC0028CAD00E48FFF79DFCC6E787
:1049B0000D48FFF799FCB7E70C48FFF795FCAEE709
:1049C0000B48FFF791FC384608B0BDE8F0814FF086
:1049D000FF37C7E7646700205C8700203C85002024
:1049E00038850020805500006055000048550000C3
:1049F0002456000010B5044628B12046BDE81040FA
:104A0000F421FFF7C1BB0448FFF76EFC2046BDE868
:104A10001040F421FFF7B8BB3C56000010B1F42160
:104A2000FEF7B0BE704700BF08B561B1012907D1DC
:104A3000022100F05BF8002818BF6FF0360008BDB7
:104A40006FF0360008BD012100F050F8F3E700BF19
:104A500030B505468818B0F5801F0B461446A1B046
:104A600001D8802A0CD9B3F5801F17D922461946E0
:104A7000284600F07DF8044684B9204621B030BDB8
:104A80006846FFF77FFB22466946284600F070F82B
:104A9000802104466846FFF777FBEDE76FF03604A8
:104AA000EBE700BF70B5E8B10E46D9B1044600F09F
:104AB00031F80546B0B92368012B0BD0022B01D089
:104AC000284670BD1C22304604F10801FFF75AFB4E
:104AD000284670BD2022304604F10801FFF752FB42
:104AE000284670BD6FF03605EAE700BF78B138B5EB
:104AF0000D46F0210446FFF747FB40232046256082
:104B0000E36500F0A5FA003818BF012038BD012088
:104B1000704700BFF0B5056EA5B0044604AEE5B918
:104B200000230127019330466760294602AA0093BB
:104B300000F05AFA10B1012025B0F0BD2A462046F7
:104B400002A900F0AFFA0028F5D1204600F0C0FB22
:104B50000028F0D1206625B0F0BD802D2A463046D1
:104B600028BF802204F16401FFF70CFB256ED7E714
:104B7000002800F0DC802DE9F04F1746A5B0002A90
:104B800000F0AB800C46002961D0B2F5803F0546AD
:104B9000C0F0ED804FF6FF7AA2F57F47006EFF3F31
:104BA00005F1640B01EB0A09EA6DA9F57F46141AB9
:104BB000B4FBF2F302FB1344FF3E002C61D18242AE
:104BC0004FF6FF746ED0B4FBF2F802FB08F8B8F1B0
:104BD000000F40D154B9A7F57F43B7F5803F4C464D
:104BE000A3F1FF03D14414D31F46DDE71930224659
:104BF000314605EB8000FFF7C5FA286EA7F57F4325
:104C00002044B7F5803F4C462866D144A3F1FF030A
:104C1000EAD2EA6D161AB6FBF2F302FB1366BE4245
:104C200028BF3E46002E74D1904200F08280B7FB30
:104C3000F2F602FB06F6002E5CD000233146204639
:104C4000CDE9003302AA00F0CFF9002849D00120B5
:104C500025B0BDE8F08F002341463046CDE9003352
:104C600002AA00F0C1F90028F1D14246284602A963
:104C700000F018FA0028EAD1286E4644A4EB080494
:104C8000A8E7544528BF5446314622465844FFF70A
:104C900079FA286EEA6D2044824226442866AAEBFF
:104CA000040490D1802A28BF8022594604A8FFF727
:104CB00069FA0023E96D02AACDE9003304A800F0E7
:104CC00093F90028C3D12846EA6D02A900F0EAF959
:104CD0000028BCD1EA6D286675E7384625B0BDE8E6
:104CE000F08F3246284602A900F0DCF90028AED148
:104CF0003444BF1B002FF0D02B6E3A46193305EB1E
:104D000083002146FFF73EFA2B6E00203B442B66C2
:104D10009EE705F16403214632461844FFF732FA54
:104D2000286EEA6D3044BF1B344428667CE70120BE
:104D30007047802A28BF802205F1640104A8FFF78C
:104D400021FA0023E96D04A8CDE9003302AA00F09E
:104D50004BF900287FF47BAF2846EA6D02A900F0EA
:104D6000A1F900287FF473AFEA6D28665FE7006E53
:104D70004FE700BFF8B51C460546114816460F46DA
:104D8000FFF738FE21460E48FFF74EFE044620B1DD
:104D90000B48FFF743FE2046F8BD3A46294608482F
:104DA000FFF756FE04460028F2D131460448FFF7CB
:104DB00079FE04460248FFF731FE2046F8BD00BFE9
:104DC000848700201C2330B583B001A904460193D9
:104DD00000F036F8054638B9019B1C2B07D0164D5C
:104DE0001C212046FFF7D0F9284603B030BD012131
:104DF000D4E90032003B18BF0123E1610AB143F05E
:104E00000203A26832B9E26842B9C4E908328BB938
:104E10000A4DE5E7E26843F004033AB10022284670
:104E200043F00803C4E9083203B030BD1546C4E9B5
:104E30000832D9E71546D7E7370CF0000E0CF00022
:104E40000346002866D0002964D00A681C2A61D174
:104E50004FF47F023B49D2F8100C88425CD0D2F864
:104E6000101C013158D0D2F8101C4FF47F02196089
:104E7000D2F8140C3449884260D0D2F8141C0131A5
:104E80005CD0D2F8141C4FF47F025960D2F8181C81
:104E900011F5947F4FD0D2F8181C01314BD0D2F8C5
:104EA000181C4FF47F029960D2F81C0C27498842E5
:104EB0003ED0D2F81C1C01313AD0D2F81C1C4FF461
:104EC0007F02D960D2F8001C70312FD0D2F8001CBC
:104ED00001312BD0D2F8001C4FF47F021961D2F8B7
:104EE000041CAF3120D0D2F8041C01311CD0D2F800
:104EF000041C4FF47F025961D2F8080C144988420F
:104F00000DD0D2F8081C013109D0D2F8082C0020AD
:104F10009A6170470120704740F6FC01A5E740F216
:104F2000373200209A6170475121E2E79021D3E7A0
:104F300042F60411C3E740F6D861B2E742F2D0016D
:104F4000A1E700BFFCF8FFFFD020FFFF0429FFFF0F
:104F500037F3FFFF014608B54FF48060FFF79EF876
:104F60000022034BC3F8C821C3F82C2108BD00BFA1
:104F7000001084500138072805D8DFE800F0120E31
:104F8000040A0404040609487047CB6800204B62F9
:104F900070478B6800204B6270474B6800204B6263
:104FA00070470B6800204B62704700BF310CF10066
:104FB0000B6802E0082B0B6006D8026A13424FEA26
:104FC0004303F7D00020704700487047310CF100D0
:104FD0000022044B4FF48060C3F82C21C3F8C42195
:104FE000FFF742B800108450F0B5002483B0B0F150
:104FF000005F8DF8074025D38C468444BCF1804F78
:1050000004461FD817461D4601220DF1070300F084
:1050100099F90646B0B99DF80730099A3C603B7192
:1050200092B14DB10246089928460DF1070300F0F0
:1050300089F938B99DF807303046099A156013711F
:1050400003B0F0BD4FF47506304603B0F0BD00BFAD
:10505000E8B110B50468012C04D0022C10D044B182
:105060000C4810BD20220C490830FFF78BF80020B7
:1050700010BD142209490830FFF784F8204610BDFE
:10508000202207490830FFF77DF8002010BD4FF4BB
:10509000730070470100F300805600004C5600007A
:1050A000605600002DE9F843002900F0F98004461D
:1050B000002800F0F98003680F469046002B00F0AE
:1050C000C380013B012B00F2D7804FF0FF317848BD
:1050D0004FF00209FFF770F8002840F0BF80002071
:1050E000FFF79AF80646002840F0C280714AD2F8CD
:1050F0001C39002BFBD16F4DD5F8203C002BFBD188
:105100004FF0FF30FEF7B0FFD5F8040A20F0400062
:10511000FEF7B8FF01230722C5F81838C5F80029A3
:10512000C5F8C437A36CC5F8CC37E36CC5F8D037E5
:10513000C5F8C09723685BB1013B012B18D8636A9F
:10514000C5F85C36236AC5F85836E369C5F85436A5
:10515000A269584BC3F850266269C3F84C262269ED
:10516000C3F84826E268C3F84426A268C3F840267C
:10517000504AD2F81039002BFBD1B8F1000F5FD0A4
:1051800063684020012B08BFC2F884363A68494B57
:10519000C3F8282CC3F82C8CFEF77AFF0646454A44
:1051A000D2F81039002BFBD1424AD2F8203C002B18
:1051B000FBD123685BB1013B012B18D8D2F85C36D8
:1051C0006362D2F858362362D2F85436E361394B21
:1051D000D3F85026A261D3F84C266261D3F8482652
:1051E0002261D3F84426E260D3F84036A36000235E
:1051F0000121304AD2F8CC07A064D2F8D007E0648D
:10520000C2F8C417C2F88436C2F8C837D2F81039C9
:10521000002BFBD1C2F81838002E3BD1254BD3F818
:10522000040A40F04000FEF72DFF0120FEF7F4FFD6
:1052300060BB1F48FEF7C8FF10BB3046BDE8F883CF
:105240000423C2F8C837AAE74FF0FF3118484FF0DF
:105250000109FEF7B1FF00283FF441AF1648FFF700
:1052600043F80020FEF7D8FF064600283FF43EAF83
:105270001248FFF739F839E7114E3046BDE8F88398
:105280001048FFF731F83046BDE8F8830E48FFF7C5
:105290002BF8CEE7102104F10800FEF775FFBDE7FB
:1052A0000A4E3046BDE8F8834FF47306C5E700BFE9
:1052B00060670020001084504855000060550000D1
:1052C0000100F300A0550000805500000300F3002A
:1052D000A0B3034670B4D0E90240D3E9041226BA61
:1052E00005BA0CBA10BAC3E90440D3E90612986AA9
:1052F00009BAC3E9026512BA996100BAD3E9084153
:1053000025BA0CBAC3E90725D3E90B12C3E9094052
:1053100009BAD86B12BAD962D3E90D4125BAC3E9EB
:105320000C250CBA00BAD3E9101209BA12BAC3E9B3
:105330000E40196400205A6470BC70474FF473002B
:10534000704700BF00201870704700BF014B1B68FA
:10535000184700BFC4670020024B1860024B0020B2
:1053600019607047C0670020C4670020054A0346E3
:10537000106810B10344136070470348034413607E
:10538000704700BF8888002000100020FEE700BFA3
:10539000F8B500BFF8BC08BC9E467047F8B500BF22
:1053A000F8BC08BC9E4670470122FBF747FF1FBDB3
:1053B0001FB527486946F7E71FB526486946F3E752
:1053C0001FB525486946EFE71FB524486946EBE756
:1053D0001FB523486946E7E71FB522486946E3E75A
:1053E0001FB521486946DFE71FB520486946DBE75E
:1053F0001FB51F486946D7E71FB51E486946D3E762
:105400001FB51D486946CFE71FB51C486946CBE765
:105410001FB51B486946C7E71FB51A486946C3E769
:105420001FB519486946BFE71FB518486946BBE76D
:105430001FB517486946B7E71FB516486946B3E771
:105440001FB515486946AFE71FB514486946ABE775
:10545000751200007B120000A912000071130000F9
:10546000F915000095160000D51600004917000038
:105470007F170000FD17000043180000C11800004E
:105480006D1900007D190000A9190000FD19000028
:105490002B1A0000011A0000551A000071120000BA
:1054A00054464D5F43525950544F0054464D5F533C
:1054B000505F504C4154464F524D5F5359535445E1
:1054C0004D5F52455345540054464D5F53505F5015
:1054D0004C4154464F524D5F494F43544C00544643
:1054E0004D5F53505F504C4154464F524D5F4E56A6
:1054F0005F434F554E54455200000000451B0000CD
:105500001D1B0000A91A00009B1A0000940800004F
:1055100060690020B0690020008000000080000069
:10552000FFFF0F00007C000000800000FF8FFFFFE6
:10553000FF8FFFFFFE8FFFFFFE8FFFFFFD8FFFFF3F
:10554000FC8FFFFFFC8FFFFF4661696C20746F20AA
:1055500061637175697265206D757465780A000004
:105560004661696C20746F20696E63726561736552
:1055700020504D20636F756E7465720A0000000044
:105580004661696C20746F20646563726561736540
:1055900020504D20636F756E7465720A0000000024
:1055A0004661696C20746F2072656C65617365205B
:1055B0006D757465780A0000436F756C64206E6FBA
:1055C00074206C6F636B20706F77657220736176E7
:1055D00065206D75746578006D757465785F6672A9
:1055E00065652063616C6C65642077697468204E22
:1055F000554C4C20706172616D65746572000000DD
:1056000043616E277420696E697469616C697A659B
:10561000206D757465782C20776173204E554C4C45
:105620000D0A00004661696C20746F20756E6C6F06
:10563000636B206D757465780A0000000A637478E6
:10564000206973204E554C4C0A0000000123456729
:1056500089ABCDEFFEDCBA9876543210F0E1D2C3BC
:10566000D89E05C107D57C3617DD703039590EF745
:10567000310BC0FF11155868A78FF964A44FFABE0B
:1056800067E6096A85AE67BB72F36E3C3AF54FA5D3
:105690007F520E518C68059BABD9831F19CDE05BFF
:1056A000000000005CB8FF7F010000000090D00304
:1056B00080070000406800206069002090ED00E055
:1056C00098670020A46700209C6700209467002052
:1056D0005C670020A1420000AD420000B94200001A
:1056E00000000000C54200002885002011000000D5
:1056F000B54300001D430000454300008543000002
:10570000B86700207C670020B06700200000000020
:10571000A86700202C8500201100000030850020A3
:10572000110000003485002011000000C1020000BB
:1057300041030000CC6700200000000000000000D2
:105740000000000000000000000000000000000059
:105750000000000000000000000000000000000049
:105760000000000000000000000000000000000039
:105770000000000000000000000000000000000029
:105780000000000000000000000000000000000019
:105790000000000000000000E50E0000C10E000047
:107C00007FE97FE9F8F790BC7FE97FE9F8F79CBC52
:107C10007FE97FE9F8F7CABC7FE97FE9F8F7A4BC00
:107C20007FE97FE9F8F7B0BC000000000000000029
:107C30000000000000000000000000000000000044
:10800000A8690120ADC20000B183010081C2000057
:1080100081C2000081C2000081C2000081C2000054
:1080200000000000000000000000000059BD00003A
:1080300081C2000000000000F9BC000081C2000005
:10804000E1BD0000E1BD0000E1BD0000E1BD0000B8
:10805000E1BD0000E1BD0000E1BD0000E1BD0000A8
:10806000E1BD0000E1BD0000E1BD0000E1BD000098
:10807000E1BD0000E1BD0000E1BD0000E1BD000088
:10808000E1BD0000E1BD0000E1BD0000E1BD000078
:10809000E1BD0000E1BD0000E1BD0000E1BD000068
:1080A000E1BD0000E1BD0000E1BD0000E1BD000058
:1080B0006F890100E1BD0000E1BD0000E1BD0000ED
:1080C000E1BD0000E1BD0000E1BD0000E1BD000038
:1080D000E1BD0000E1BD0000E1BD0000E1BD000028
:1080E000E1BD0000E1BD0000E1BD0000E1BD000018
:1080F000E1BD0000E1BD0000E1BD0000E1BD000008
:10810000E1BD0000E1BD0000E1BD0000E1BD0000F7
:10811000E1BD0000E1BD0000E1BD0000E1BD0000E7
:10812000E1BD0000E1BD0000E1BD0000E1BD0000D7
:10813000E1BD0000E1BD0000E1BD0000E1BD0000C7
:10814000E1BD0000FFFFFFFF4FF0FF0C1CEAD05223
:108150001EBF1CEAD15392EA0C0F93EA0C0F6FD0AA
:108160001A4480EA010C400218BF5FEA41211ED088
:108170004FF0006343EA501043EA5111A0FB013174
:108180000CF00040B1F5000F3EBF490041EAD37149
:108190005B0040EA010062F17F02FD2A1DD8B3F1C5
:1081A000004F40EBC25008BF20F00100704790F034
:1081B000000F0CF0004C08BF49024CEA502040EA86
:1081C00051207F3AC2BFD2F1FF0340EAC25070474C
:1081D00040F400004FF00003013A5DDC12F1190F8A
:1081E000DCBF00F000407047C2F10002410021FAFC
:1081F00002F1C2F1200200FA02FC5FEA310040F114
:10820000000053EA4C0308BF20EADC70704792F08C
:10821000000F00F0004C02BF400010F4000F013AC4
:10822000F9D040EA0C0093F0000F01F0004C02BFBF
:10823000490011F4000F013BF9D041EA0C018FE72E
:108240000CEAD15392EA0C0F18BF93EA0C0F0AD034
:1082500030F0004C18BF31F0004CD8D180EA01005A
:1082600000F00040704790F0000F17BF90F0004FF3
:10827000084691F0000F91F0004F14D092EA0C0FD5
:1082800001D142020FD193EA0C0F03D14B0218BF68
:10829000084608D180EA010000F0004040F0FE40AE
:1082A00040F40000704740F0FE4040F4400070474A
:1082B00081F0004102E000BF83F0004330B54FEA97
:1082C00041044FEA430594EA050F08BF90EA020F04
:1082D0001FBF54EA000C55EA020C7FEA645C7FEA97
:1082E000655C00F0E2804FEA5454D4EB5555B8BFBA
:1082F0006D420CDD2C4480EA020281EA030382EA2B
:10830000000083EA010180EA020281EA0303362DBC
:1083100088BF30BD11F0004F4FEA01314FF4801C8F
